S01800006D79486F6D654175746F6D6174696F6E2E737265637C
S11300000C94B1000C94CE000C94CE000C94CE0051
S11300100C94CE000C94CE000C94CE000C94CE0024
S11300200C94CE000C94CE000C94CE000C94CE0014
S11300300C94CE000C94CE000C94CE000C94CE0004
S11300400C94CE000C94CE000C94CE000C94CE00F4
S11300500C94CE000C94CE000C94CE000C94CE00E4
S11300600C94CE000C94CE0000407A10F35A00A0F9
S1130070724E18090010A5D4E80000E8764817006D
S113008000E40B54020000CA9A3B000000E1F505AD
S1130090000080969800000040420F000000A086F7
S11300A001000000102700000000E8030000000029
S11300B06400000000000A000000000001000000CD
S11300C000002C76D888DC674F0823DFC1DFAE59E7
S11300D0E1B1B796E5E3E453C63AE651997696E87A
S11300E0E6C28426EB898C9B62ED407C6FFCEFBCFE
S11300F09C9F40F2BAA56FA5F490055A2AF75C9329
S11301006B6CF9676DC11BFCE0E40D47FEF520E65E
S1130110B500D0ED902E0300943577050080841E41
S1130120080000204E0A000000C80C333333330F9C
S1130130986E12831141EF8D2114893BE65516CF39
S1130140FEE6DB18D1844B381BF77C1D901DA4BB45
S1130150E424203284725E228100C9F124ECA1E5FA
S11301603D2711241FBECFEFD8E0DEBFCDBF11E085
S1130170A0E0B1E0E8E0F1E102C005900D92AA31FF
S1130180B107D9F721E0AAE1B1E001C01D92A6327E
S1130190B207E1F70E945E020C9482080C940000FE
S11301A0E0ECF0E0908195FFFDCF8093C6000895C8
S11301B0E0ECF0E080818823ECF78091C60090E0C9
S11301C008950F931F93CF93DF93FB01C0E2D1E017
S11301D020E031E0398328833B832A831092C000D6
S11301E028E12093C10026E82093C2001092C500A4
S11301F0DC0120E432E44FE050E00E94BD058B01B5
S11302009C01992324F4015F1F4F2F4F3F4FC901D5
S1130210B801689413F89595879577956795169422
S1130220D1F79F0140E050E00E949E052150310922
S11302302093C400DF91CF911F910F91089517B8B7
S1130240EAE7F0E080818768808308958F929F9227
S1130250AF92BF92EF92FF920F931F93CF93DF93CE
S1130260813051F028F0823059F0833069F010C0A9
S113027080E480937C0031C081E480937C002DC0B5
S113028082E480937C0029C083E480937C0025C0B1
S113029084E480937C0021C0888180648883888181
S11302A084FFFDCF88818061888381E28A95F1F79C
S11302B00000F8016081718180E090E00E947A047E
S11302C09B01AC01C501B4010E9461034B015C01B7
S11302D0F1E0EF1AF10801F70EC00F2EF8EEEF2E41
S11302E0F3E0FF2EF02D812C912C5401CAE7D0E0CD
S11302F008E710E0D1CF20E030E04AE754E40E9460
S1130300D2030E944404CB01DF91CF911F910F913E
S1130310FF90EF90BF90AF909F908F900895CF92F1
S1130320DF92EF92FF926B017C0120E030E040EF1E
S113033051E40E94CD0388235CF481E090E0909323
S11303401D0180931C015D9A87E60E94D0000BC0BA
S113035080911C0190911D01019729F410921D01B7
S113036010921C015D9820E030E040EF51E4C70199
S1130370B6010E942C051816CCF420E030E040E2CF
S113038052E4C701B6010E94CD0388237CF481E0C6
S113039090E090931B0180931A015D9A5E9A83E723
S11303A00E94D00088E60E94D0000CC080911A01FF
S11303B090911B01019731F410921B0110921A01C4
S11303C05D985E9820E030E040E252E4C701B60157
S11303D00E942C051816D4F420E030E040E752E4E3
S11303E0C701B6010E94CD03882384F481E090E024
S11303F090931F0180931E015D9A5E9A5F9A86E72F
S11304000E94D00088E60E94D0000DC080911E0199
S113041090911F01019739F410921F0110921E014F
S11304205D985E985F9820E030E040E752E4C701B1
S1130430B6010E942C0518161CF486E60E94D00012
S1130440FF90EF90DF90CF900895EF92FF920F937B
S11304501F93CF93DF93CDB7DEB72C970FB6F894E5
S1130460DEBF0FBECDBF2CE0EEE0F1E0DE01119661
S113047001900D922A95E1F78E010F5F1F4F22E044
S113048030E04CE050E00E94F9057E018DE0E80E7A
S1130490F11CF80181918F010E94D0000E151F05F7
S11304A0C1F72C960FB6F894DEBF0FBECDBFDF9117
S11304B0CF911F910F91FF90EF90089560E875E23E
S11304C080E190E00E94E1000E941F018FEF8AB951
S11304D08CEF84B9D12CE12CF12CC12C00E010E07C
S11304E0C0E0D0E0312C212CC130D10581F50F5F63
S11304F01F4F20E030E040E251E46D2D7E2D8F2D22
S11305009C2D0E94CD038823DCF40230110561F791
S11305104C9912C020E030E040E85FE36D2D7E2D61
S11305208F2D9C2D0E946103D62EE72EF82EC92E06
S11305305C9A00E010E00BC05C9800E010E007C09B
S1130540D32CE22CF12CC12C80E0C82FD82F80E0D2
S11305500E94D800813001F1843631F41A9902C026
S11305602A9A12C02A9810C0853631F41B9902C009
S11305702B9A12C02B9810C0863631F41C9902C0F5
S11305802C9A0AC02C9808C0813731F481E0CD2B15
S113059009F080E0C82FD0E080E00E942601BC0171
S11305A0990F880B990B0E947C042FE135E84BE6E8
S11305B050E40E94310520E030E040E251E40E9422
S11305C0D2032B013C010E948F01C301B2010E949E
S11305D0250284E60E94D00081E00E942601BC012D
S11305E0990F880B990B0E947C0420E034E244EFBD
S11305F053E40E9431054B015C010E94250280E70F
S11306000E94D00020E03CE742E958E4C501B4016F
S11306100E942C0518167CF420E030E040E752E4F8
S1130620C301B2010E942C0518162CF42D9A89E7F7
S11306300E94D00001C02D9820E030E543EC58E43E
S1130640C501B4010E942C05181624F487E70E9402
S1130650D00001C02D9882E00E942601BC01990FB0
S1130660880B990B0E947C0420E034E244EF53E4AD
S11306700E9431054B015C0120E03CE742E958E46B
S11306800E942C0518162CF42D9A81E60E94D000A5
S113069001C02D98C501B4010E94250280E70E9483
S11306A0D0008CE60E94D00083E00E942601BC01A9
S11306B0990F880B990B0E947C040E94250214CF89
S11306C05058BB27AA270E9478030C94F2040E9476
S11306D0E40438F00E94EB0420F039F49F3F19F44D
S11306E026F40C94E1040EF4E095E7FB0C94DB048F
S11306F0E92F0E94030558F3BA17620773078407AA
S1130700950720F079F4A6F50C9425050EF4E095F0
S11307100B2EBA2FA02D0B01B90190010C01CA01B7
S1130720A0011124FF27591B99F0593F50F4503E62
S113073068F11A16F040A22F232F342F4427585F54
S1130740F3CF469537952795A795F0405395C9F76C
S11307507EF41F16BA0B620B730B840BBAF0915024
S1130760A1F0FF0FBB1F661F771F881FC2F70EC0C3
S1130770BA0F621F731F841F48F487957795679596
S1130780B795F7959E3F08F0B0CF9395880F08F082
S11307909927EE0F9795879508950E94B70408F45A
S11307A081E008950E94E6030C94F2040E94EB0495
S11307B058F00E94E40440F029F45F3F29F00C94BF
S11307C0DB0451110C9426050C94E1040E940305EA
S11307D068F39923B1F3552391F3951B550BBB276C
S11307E0AA2762177307840738F09F5F5F4F220FB1
S11307F0331F441FAA1FA9F335D00E2E3AF0E0E8A8
S113080032D091505040E695001CCAF72BD0FE2FF1
S113081029D0660F771F881FBB1F26173707480785
S1130820AB07B0E809F0BB0B802DBF01FF2793583D
S11308305F4F3AF09E3F510578F00C94DB040C9422
S113084026055F3FE4F3983ED4F386957795679544
S1130850B795F7959F5FC9F7880F911D9695879572
S113086097F90895E1E0660F771F881FBB1F621791
S113087073078407BA0720F0621B730B840BBA0B4F
S1130880EE1F88F7E09508950E944B046894B11117
S11308900C94260508950E940B0588F09F5798F044
S11308A0B92F9927B751B0F0E1F0660F771F881F71
S11308B0991F1AF0BA95C9F714C0B13091F00E948B
S11308C02505B1E008950C942505672F782F882716
S11308D0B85F39F0B93FCCF3869577956795B395B2
S11308E0D9F73EF490958095709561957F4F8F4F21
S11308F09F4F0895E89409C097FB3EF49095809526
S1130900709561957F4F8F4F9F4F9923A9F0F92FD1
S113091096E9BB279395F695879577956795B7954F
S1130920F111F8CFFAF4BB0F11F460FF1BC06F5F35
S11309307F4F8F4F9F4F16C0882311F096E911C047
S1130940772321F09EE8872F762F05C0662371F068
S113095096E8862F70E060E02AF09A95660F771F7C
S1130960881FDAF7880F9695879597F90895990F58
S11309700008550FAA0BE0E8FEEF16161706E80765
S1130980F907C0F012161306E407F50798F0621B86
S1130990730B840B950B39F40A2661F0232B242B5B
S11309A0252B21F408950A2609F4A140A6958FEF7A
S11309B0811D811D089597F99F6780E870E060E0CC
S11309C008959FEF80EC089500240A9416161706E4
S11309D018060906089500240A941216130614062C
S11309E005060895092E0394000C11F4882352F08F
S11309F0BB0F40F4BF2B11F460FF04C06F5F7F4F47
S1130A008F4F9F4F089557FD9058440F551F59F02D
S1130A105F3F71F04795880F97FB991F61F09F3FE7
S1130A2079F087950895121613061406551FF2CF10
S1130A304695F1DF08C0161617061806991FF1CF60
S1130A4086957105610508940895E894BB27662787
S1130A507727CB0197F908950E94B70408F48FEF24
S1130A6008950E9444050C94F2040E94E40438F0B2
S1130A700E94EB0420F0952311F00C94DB040C94F9
S1130A80E10411240C9426050E94030570F3959F3C
S1130A90C1F3950F50E0551F629FF001729FBB2771
S1130AA0F00DB11D639FAA27F00DB11DAA1F649F0D
S1130AB06627B00DA11D661F829F2227B00DA11DC0
S1130AC0621F739FB00DA11D621F839FA00D611D46
S1130AD0221F749F3327A00D611D231F849F600D67
S1130AE0211D822F762F6A2F11249F5750409AF090
S1130AF0F1F088234AF0EE0FFF1FBB1F661F771F1C
S1130B00881F91505040A9F79E3F510580F00C94E6
S1130B10DB040C9426055F3FE4F3983ED4F38695FA
S1130B2077956795B795F795E7959F5FC1F7FE2B86
S1130B30880F911D9695879597F90895052E97FB33
S1130B401EF400940E94B50557FD07D00E94C80505
S1130B5007FC03D04EF40C94B505509540953095A0
S1130B6021953F4F4F4F5F4F089590958095709515
S1130B7061957F4F8F4F9F4F08950E94EA05A59F6F
S1130B80900DB49F900DA49F800D911D1124089584
S1130B90A1E21A2EAA1BBB1BFD010DC0AA1FBB1F7D
S1130BA0EE1FFF1FA217B307E407F50720F0A21BEF
S1130BB0B30BE40BF50B661F771F881F991F1A945C
S1130BC069F760957095809590959B01AC01BD0186
S1130BD0CF010895A29FB001B39FC001A39F700DE0
S1130BE0811D1124911DB29F700D811D1124911D31
S1130BF00895EF920F931F93CF93DF93E80147FD7E
S1130C0002C034E001C034E1042E000C550B57FF40
S1130C1003C0519541955109E32E022F242FAE01B3
S1130C200E941906CE01DF91CF911F910F91EF9091
S1130C300895A9E0B0E0EFE1F6E00C9451086A01F0
S1130C40122FB02E2BE3201720F0FF24F394F00E84
S1130C5002C02CE3F22E0F2D27E0AE014F5F5F4F51
S1130C600E947307BC014981842F8970813031F05F
S1130C70E1FC06C0E0FE06C090E205C09DE203C0B0
S1130C809BE201C090E05E2D507143FF3CC0911186
S1130C9002C083E001C084E0811718F4212F281BCF
S1130CA001C020E051110BC0F601822F30E28823ED
S1130CB019F031938150FBCFC20ED11C20E099234F
S1130CC029F0D6019C93F60131966F01C601039673
S1130CD0E2FE0AC03EE4D6013C9341E411964C93F3
S1130CE0119712963C9306C03EE6F601308341E626
S1130CF041833283FC01322F40E2332309F442C0A2
S1130D0041933150FACF42FF44C0911102C083E0B5
S1130D1001C084E0811718F4212F281B01C020E0B2
S1130D2051110BC0F601822F30E2882319F0319360
S1130D308150FBCFC20ED11C20E0992329F0D601AB
S1130D409C93F60131966F01C6010396E2FE0BC037
S1130D5039E4D6013C933EE411963C93119736E472
S1130D6012963C9307C039E6F60130833EE63183A0
S1130D7036E63283FC01322F40E2332319F04193EB
S1130D803150FBCFFC01E20FF11D10828EEF9FEF7B
S1130D90A6C021E030E0911102C020E030E0161638
S1130DA017061CF4FB01319602C0E1E0F0E02E0FBF
S1130DB03F1FBB2021F0EB2DF0E0319602C0E0E0B4
S1130DC0F0E02E0F3F1FE12FF0E02E173F071CF439
S1130DD0121B212F01C020E08E2D887159F4F601D9
S1130DE0822F30E2882319F031938150FBCFC20E59
S1130DF0D11C20E0992329F0D6019C93F601319669
S1130E006F0151110BC0F601822F90E3882319F072
S1130E1091938150FBCFC20ED11C20E00F2D060F01
S1130E209A81342F307144FF03C0913309F4015087
S1130E30101624F4093018F008E001C001E0AB01F9
S1130E4077FF02C040E050E0FB01E41BF50BA1E09A
S1130E50B0E0AC0FBD1FEA0FFB1F8EE2A82E4B01C2
S1130E60801A91080B2D10E01195019511094F3F3F
S1130E70BFEF5B0721F4D601AC9211966D016417A4
S1130E8075072CF08416950614F4818101C080E363
S1130E90415051093196D60111967D0140175107F1
S1130EA024F0D6018C936701E2CF6417750739F4F7
S1130EB0963320F4953319F4311101C081E3F6011E
S1130EC08083F701822F90E2882319F09193815057
S1130ED0FBCFF701E20FF11D108280E090E029962C
S1130EE0ECE00C946D08283008F027E03327DA0191
S1130EF0990F311D87FD916000966105710539F4E4
S1130F0032602E5F3D9330E32A95E1F708959F3FC9
S1130F1030F080387105610509F03C5F3C5F3D931A
S1130F20913008F08068911DDF93CF931F930F9346
S1130F30FF92EF92192F987F9695E92F96959695A3
S1130F40E90FFF27EE53FF4F99273327EE24FF24A1
S1130F50A701E70105900894079428F4360FE71ECB
S1130F60F81E491F511D660F771F881F991F06948D
S1130F70A1F70590079428F4E70EF81E491F561FA1
S1130F80C11D770F881F991F661F0694A1F705904E
S1130F90079428F4F80E491F561FC71FD11D880F48
S1130FA0991F661F771F0694A1F70590079420F4F4
S1130FB0490F561FC71FD81F990F661F771F881F19
S1130FC00694A9F784911095177041F0D695C795AA
S1130FD057954795F794E7941A95C1F7E8E6F0E03A
S1130FE068941590159135916591959105907FE2DE
S1130FF07395E118F10A430B560BC90BD009C0F7DE
S1131000E10CF11E431F561FC91FD01D7EF470331F
S113101011F48A95E6CFE894015030F0080F0AF4F1
S11310200027021708F4202F2395022F7A3328F083
S113103079E37D932A95E9F710C07D932A9589F683
S1131040069497956795379517951794E118F10AC3
S1131050430B560BC90BD00998F023957E917395D9
S11310607A3308F070E37C932013B8F77E917061B3
S11310707D9330F0839571E37D9370E32A95E1F7D6
S11310801124EF90FF900F911F91CF91DF91992739
S113109087FD909508952F923F924F925F926F92A1
S11310A07F928F929F92AF92BF92CF92DF92EF92F4
S11310B0FF920F931F93CF93DF93CDB7DEB7CA1B75
S11310C0DB0B0FB6F894DEBF0FBECDBF09942A88A0
S11310D0398848885F846E847D848C849B84AA8448
S11310E0B984C884DF80EE80FD800C811B81AA81D5
S11310F0B981CE0FD11D0FB6F894DEBF0FBECDBFA0
S10B1100ED010895F894FFCFFE
S11311080000000300000000D000D80000003030C8
S10D111830303030303030303030E9
S9030000FC
